:03000000020AB041
:0C0AB000787FE4F6D8FD7581090209C4C6
:100A8F007509FF7508037B007A007908E4FF0208F7
:010A9F000056
:1009C400120A8F7F01120A697FD0120AA07F0212D5
:1009D4000A697FD0120AA07F0A120A697FA0120A4C
:1009E400A07F0B120A697FA0120AA07F0C120A6969
:1009F4007FA0120AA07F0D120A697FA0120AA07FAD
:100A04000E120A697FA0120AA07F0F120A697FA042
:0F0A1400120AA07F11120A697FA0120AA080A403
:10080000EFD3940540037F0122120A23FED3940301
:1008100040037F0222EF7041EE700B900001120A3C
:100820003CF452935294120A23B4010B900001122B
:100830000A3C4293F45294120A23FEB4020A900036
:1008400001120A3C42934294EEB4030D900001124F
:100850000A3CFEF45293EE4294EF64017043120A94
:1008600023FE700B900001120A3CF452915292EE5A
:10087000B4010B900001120A3C4291F45292120A08
:1008800023B4020A900001120A3C42914292120AD9
:1008900023B4030D900001120A3CFEF45291EE4283
:1008A00092EF64027043120A23FE700B9000011253
:1008B0000A3CF452955296EEB4010B900001120AD4
:1008C0003C4295F45296120A23B4020A9000011297
:1008D0000A3C42954296120A23B4030D900001127D
:1008E0000A3CFEF45295EE4296EF64037043120AFE
:1008F00023FE700B900001120A3CF452B152B2EE8A
:10090000B4010B900001120A3C42B1F452B2120A37
:1009100023B4020A900001120A3C42B142B2120A08
:1009200023B4030D900001120A3CFEF452B1EE42D2
:10093000B2EF64047043120A23FE700B90000112A0
:100940000A3CF452B352B4EEB4010B900001120A07
:100950003C42B3F452B4120A23B4020A90000112CA
:100960000A3C42B342B4120A23B4030D90000112B0
:100970000A3CFEF452B3EE42B4EF64057043120A2F
:1009800023FF700B900001120A3CF452C952CAEFC7
:10099000B4010B900001120A3C42C9F452CA120A77
:1009A00023B4020A900001120A3C42C942CA120A48
:1009B00023B4030D900001120A3CFFF452C9EF4228
:0409C000CA7F0022C8
:0F0AA0007DA57C06ED1D70011C144C70F7DFF175
:010AAF002224
:100A7D003F065B4F666D7D077F6F777C395E7971C1
:020A8D008000E7
:100A6900EF3395E0FE747D2FF582740A3EF583E439
:040A790093F580224F
:100A2300BB010689828A83E0225002E722BBFE02D1
:090A3300E32289828A83E4932204
:100A3C00BB010CE58229F582E5833AF583E022506F
:100A4C0006E92582F8E622BBFE06E92582F8E222B9
:0D0A5C00E58229F582E5833AF583E49322D3
:00000001FF
